:0400000080313F28E4
:100008007E1480314E010C1C0A280B280F280C1076
:100018004001E209E3094E018C1E132814283D28EB
:100028008C12031040010C1E031403181C281F28EF
:1000380040010C16212840010C120130E007003065
:10004800E13D6108803AA70080302702031D2E2871
:1000580064306002031C3128322835284001E00151
:10006800E10140016108A1006008A000813171210F
:1000780080317E10090080314128B83084008430F6
:10008800850053308600003087000D308431F0241D
:100098008031E001E101E201E3017E10400180319D
:1000A80055285A30860000308700473084000030D9
:1000B800850006304001BE0016001A00BE0B6028FD
:1000C80053308600003087004030840000308500BF
:1000D8000730BE0016001A00BE0B6E288431A62415
:1000E80080318331EA2380318431E82480318431BE
:1000F800DD2480318431C52480314001B001B00A4B
:10010800013084318E2480314001CF01D0019928FB
:100118004F08473E86008701010884313A24803120
:1001280001304001CF070030D03D4F08473E8600E0
:1001380087010108031DA128A2288C28B001B00A54
:10014800023084318E2480314001CF01D001B9289A
:100158004F08403E86008701010884313A248031E7
:1001680001304001CF070030D03D4F08403E8600A7
:1001780087010108031DC128C228AC28C328003004
:100188004001A800A90084311324803140012908C6
:10019800CE002808CD004E08B9004D08B8008231BD
:1001A8008C22803101304001A8000030A900843140
:1001B8001324803140012908D2002808D1005208B0
:1001C800B9005108B80082313422803140016208F8
:1001D8006304031DF028F128502900305202FA3038
:1001E800031951020318F928FA2805298C158C10CF
:1001F8000C110C128C124E0196124001E001E10123
:10020800C32800305202FA3003195102031C0D2989
:100218000E291F2902305202EF3003195102031828
:10022800162917291F298C168C100C110C128C11E9
:100238004E019612012902305202EF300319510281
:10024800031C27292829C32803108C1C031403180E
:100258002E29312940018C14332940018C100310B8
:100268000C1D0314031839293C2940010C153E299B
:1002780040010C114E01961640018C128C1103306E
:100288004001BF000830BE007730890B4929BE0BFA
:100298004929BF0B4929C32803108C1C03140318D0
:1002A8005629592940018C145B2940018C100310F0
:1002B8000C1D031403186129642940010C156629D3
:1002C80040010C110C168C128C114E019612400133
:1002D800E001E101432980313F280A30F80000306D
:1002E800F90040012108FB002008FA008331B623F9
:1002F800813179084001A4007808A3000A30F80089
:100308000030F9000A30F0000030F1002108F30055
:100318002008F20083317A2381317108FB007008CC
:10032800FA008331B623813179084001A6007808A4
:10033800A5000F118F112408850023088400D230EE
:1003480084078430853D00088E0007304001A200F4
:100358007D30890BAD29A20BAD29DC3084008430B7
:100368008500000840018E000F118F1526088500B2
:1003780025088400D23084078430853D00088E002B
:1003880007304001A2007D30890BC829A20BC8297B
:10039800DC30840084308500000840018E000800AD
:1003A8004001AE01A91FD929DA29E129A809A9091B
:1003B800A80A0319A90AAE01AE0AAB1FE429E52968
:1003C800EE29AA09AB09AA0A0319AB0A0130AC0045
:1003D8002C08AE06AF01B001280829040319F52935
:1003E800F629252AAD01AD0A022A0130A835A90D42
:1003F800890BFA290130AC002C08AD07A91F052A82
:10040800062AF9290130AF35B00D890B072A2908CA
:100418002B02031D112A28082A02031C142A152A54
:100428001A2A2808AA022908AB3B2F140130A9363A
:10043800A80C890B1B2A0130AD02031D242A252A8A
:10044800062A2E080319292A2A2A2F2AAF09B009B1
:10045800AF0A0319B00A3008A9002F08A80008003D
:1004680064304001A8000030A9003908AB00380802
:10047800AA008131D421823140012808BA003A0803
:10048800BB000A30B1000030B2000A30A8000030CA
:10049800A9003908AB003808AA008131D42182317B
:1004A80040012908B4002808B3008231E4228231CF
:1004B80040013108BA003A08BC000A30B1000030E7
:1004C800B2003908B4003808B3008231E42282311E
:1004D80040013108BA003A08BD000930BA003A08AC
:1004E800B000023084318E24823140013B08303E16
:1004F80084313A24823140013C08303E84313A2428
:10050800823140013D08303E84313A24823108006E
:1005180064304001A8000030A9003908AB00380851
:10052800AA008131D421823140012808BA003A0852
:10053800BB000A30B1000030B2000A30A800003019
:10054800A9003908AB003808AA008131D4218231CA
:1005580040012908B4002808B3008231E42282311E
:1005680040013108BA003A08BC000A30B100003036
:10057800B2003908B4003808B3008231E42282316D
:1005880040013108BA003A08BD000930BA003A08FB
:10059800B000013084318E24823140013B08303E66
:1005A80084313A24823140013C08303E84313A2477
:1005B800823140013D08303E84313A2482310800BE
:1005C8004001B701B41FE92AEA2AF12AB309B4099C
:1005D800B30A0319B40AB701B70AB21FF42AF52AF5
:1005E800FA2AB109B209B10A0319B20A3108320468
:1005F8000319FF2A002B292BB601B60A0C2B013050
:10060800B135B20D890B042B0130B5003508B6079A
:10061800B21F0F2B102B032B32083402031D162B8D
:1006280031083302031C192B1A2B1E2B3108B30275
:100638003208B43B0130B236B10C890B1F2B0130A4
:10064800B602031D282B292B102B370803192D2B35
:100658002E2B332BB309B409B30A0319B40A34088F
:10066800B2003308B10008004001AA002A08A80017
:100678000330A836890B3D2B28080139A900A90C9D
:10068800A90C0F0829067F3929068F002A08A80017
:100698000230A836890B4D2B28080139A900A90E6C
:1006A800A90DA90D0F082906BF3929068F002A367A
:1006B8000139A800A80EA80D0F082806DF3928065A
:1006C8008F002A080139A800A80E0F082806EF395C
:1006D80028068F001014C8300032890B702B400197
:1006E8001010C8300032890B762B0800F501F6018E
:1006F800700871040319812B822BB12BF701F70ABB
:100708008E2B0130F035F10D890B862B0130F4006A
:100718007408F707F11F912B922B852B0130F535C3
:10072800F60D890B932B71087302031D9D2B70081E
:100738007202031CA02BA12BA62B7008F2027108D1
:10074800F33B75140130F136F00C890BA72B0130FF
:10075800F702031DB02BB12B922B7608F100750818
:10076800F0000800780879040319BB2BBC2BE52B93
:10077800FD01FD0AC82B0130F835F90D890BC02B96
:100788000130FC007C08FD07F91FCB2BCC2BBF2BBD
:1007980079087B02031DD22B78087A02031CD52B1B
:1007A800D62BDA2B7808FA027908FB3B0130F936A8
:1007B800F80C890BDB2B0130FD02031DE42BE52B24
:1007C800CC2B7B08F9007A08F800080014304001A7
:1007D800B4007930890BEE2BB40BEE2B00320330CA
:1007E80084315724833107304001B4007D30890BB0
:1007F800FB2BB40BFB2B023084315724833184311B
:10080800FB2483314001B0010130843174248331E9
:100818008431F62483318531002583310800400175
:1008280028082904031D192C1A2C1D2C18304101E5
:100838009E00400128032904031D232C242C272C67
:10084800193041019E0000324101131413182D2C58
:100858002E2C2A2C0D084001AB0041010C08400148
:10086800AA002B08A9002A08A80008004001AF0028
:100878002F08AB000430AB36890B3F2C2B080F39FF
:10088800AC002C08AD002F080F39AB002B08AE00C8
:1008980090142D0883313823843140012E08833188
:1008A8003823843108004001AF002F08AB00043022
:1008B800AB36890B5C2C2B080F39AC002C08AD002B
:1008C8002F080F39AB002B08AE0090102D0883318C
:1008D8003823843140012E088331382384310800BD
:1008E8004001B2000830B1003108B3003203031DE3
:1008F8007E2C7F2C802C33153003031D842C852CF3
:10090800892C0330B1003108B304330884315724EB
:10091800843108004001B2003203031D942C952C49
:100928009B2C3008FF3EB1003108B300A02C3008E2
:100938003F3EB1003108B3003308803E843157246C
:10094800843108007E01B801C301CE010330D9000B
:10095800F030E40040019101FF3092009301033030
:100968009400FC30950008005734613474346534C1
:1009780072343A340034543465346D3470343A3453
:1009880000348B13803040019E004E309F00B630FB
:100998009D004E018C1296128B170800C034F93452
:1009A800A434B034993492348234F8348034903496
:1009B800FF348B134E010C1008307D0190000B148E
:1009C8004E0116148B17080041019A010330980054
:1009D8009D01843093000800FE0012001E00FE0BEB
:1009E800F12C00340C30843157248431080028302D
:1009F80084315724843108000130843157248531EB
:020A08000800E4
:020000040001F9
:02000E00F93FB8
:040012009F3FFF1FEE
:00000001FF
